
V_usb.elf:     file format elf32-avr

Sections:
Idx Name          Size      VMA       LMA       File off  Algn
  0 .text         000005d0  00000000  00000000  00000094  2**1
                  CONTENTS, ALLOC, LOAD, READONLY, CODE
  1 .data         00000012  00800060  000005d0  00000664  2**0
                  CONTENTS, ALLOC, LOAD, DATA
  2 .bss          0000002d  00800072  00800072  00000676  2**0
                  ALLOC
  3 .comment      00000030  00000000  00000000  00000676  2**0
                  CONTENTS, READONLY
  4 .note.gnu.avr.deviceinfo 0000003c  00000000  00000000  000006a8  2**2
                  CONTENTS, READONLY
  5 .debug_aranges 00000080  00000000  00000000  000006e8  2**3
                  CONTENTS, READONLY, DEBUGGING
  6 .debug_info   00000f34  00000000  00000000  00000768  2**0
                  CONTENTS, READONLY, DEBUGGING
  7 .debug_abbrev 0000084e  00000000  00000000  0000169c  2**0
                  CONTENTS, READONLY, DEBUGGING
  8 .debug_line   00000dec  00000000  00000000  00001eea  2**0
                  CONTENTS, READONLY, DEBUGGING
  9 .debug_frame  00000094  00000000  00000000  00002cd8  2**2
                  CONTENTS, READONLY, DEBUGGING
 10 .debug_str    00000656  00000000  00000000  00002d6c  2**0
                  CONTENTS, READONLY, DEBUGGING
 11 .debug_loc    000006a7  00000000  00000000  000033c2  2**0
                  CONTENTS, READONLY, DEBUGGING
 12 .debug_ranges 000000a8  00000000  00000000  00003a69  2**0
                  CONTENTS, READONLY, DEBUGGING

Disassembly of section .text:

00000000 <__vectors>:
   0:	34 c0       	rjmp	.+104    	; 0x6a <__ctors_end>
   2:	68 c0       	rjmp	.+208    	; 0xd4 <__vector_1>
   4:	4d c0       	rjmp	.+154    	; 0xa0 <__bad_interrupt>
   6:	4c c0       	rjmp	.+152    	; 0xa0 <__bad_interrupt>
   8:	4b c0       	rjmp	.+150    	; 0xa0 <__bad_interrupt>
   a:	4a c0       	rjmp	.+148    	; 0xa0 <__bad_interrupt>
   c:	49 c0       	rjmp	.+146    	; 0xa0 <__bad_interrupt>
   e:	48 c0       	rjmp	.+144    	; 0xa0 <__bad_interrupt>
  10:	47 c0       	rjmp	.+142    	; 0xa0 <__bad_interrupt>
  12:	46 c0       	rjmp	.+140    	; 0xa0 <__bad_interrupt>
  14:	45 c0       	rjmp	.+138    	; 0xa0 <__bad_interrupt>
  16:	44 c0       	rjmp	.+136    	; 0xa0 <__bad_interrupt>
  18:	43 c0       	rjmp	.+134    	; 0xa0 <__bad_interrupt>
  1a:	42 c0       	rjmp	.+132    	; 0xa0 <__bad_interrupt>
  1c:	41 c0       	rjmp	.+130    	; 0xa0 <__bad_interrupt>

0000001e <__trampolines_end>:
  1e:	09 02       	muls	r16, r25
  20:	12 00       	.word	0x0012	; ????
  22:	01 01       	movw	r0, r2
  24:	00 80       	ld	r0, Z
  26:	32 09       	sbc	r19, r2
  28:	04 00       	.word	0x0004	; ????
  2a:	00 00       	nop
  2c:	00 00       	nop
	...

00000030 <usbDescriptorDevice>:
  30:	12 01 10 01 ff 00 00 08 c0 16 dc 05 00 01 01 02     ................
  40:	00 01                                               ..

00000042 <usbDescriptorStringDevice>:
  42:	12 03 54 00 65 00 6d 00 70 00 6c 00 61 00 74 00     ..T.e.m.p.l.a.t.
  52:	65 00                                               e.

00000054 <usbDescriptorStringVendor>:
  54:	12 03 6f 00 62 00 64 00 65 00 76 00 2e 00 61 00     ..o.b.d.e.v...a.
  64:	74 00                                               t.

00000066 <usbDescriptorString0>:
  66:	04 03 09 04                                         ....

0000006a <__ctors_end>:
  6a:	11 24       	eor	r1, r1
  6c:	1f be       	out	0x3f, r1	; 63
  6e:	cf e5       	ldi	r28, 0x5F	; 95
  70:	d2 e0       	ldi	r29, 0x02	; 2
  72:	de bf       	out	0x3e, r29	; 62
  74:	cd bf       	out	0x3d, r28	; 61

00000076 <__do_copy_data>:
  76:	10 e0       	ldi	r17, 0x00	; 0
  78:	a0 e6       	ldi	r26, 0x60	; 96
  7a:	b0 e0       	ldi	r27, 0x00	; 0
  7c:	e0 ed       	ldi	r30, 0xD0	; 208
  7e:	f5 e0       	ldi	r31, 0x05	; 5
  80:	02 c0       	rjmp	.+4      	; 0x86 <__do_copy_data+0x10>
  82:	05 90       	lpm	r0, Z+
  84:	0d 92       	st	X+, r0
  86:	a2 37       	cpi	r26, 0x72	; 114
  88:	b1 07       	cpc	r27, r17
  8a:	d9 f7       	brne	.-10     	; 0x82 <__do_copy_data+0xc>

0000008c <__do_clear_bss>:
  8c:	20 e0       	ldi	r18, 0x00	; 0
  8e:	a2 e7       	ldi	r26, 0x72	; 114
  90:	b0 e0       	ldi	r27, 0x00	; 0
  92:	01 c0       	rjmp	.+2      	; 0x96 <.do_clear_bss_start>

00000094 <.do_clear_bss_loop>:
  94:	1d 92       	st	X+, r1

00000096 <.do_clear_bss_start>:
  96:	af 39       	cpi	r26, 0x9F	; 159
  98:	b2 07       	cpc	r27, r18
  9a:	e1 f7       	brne	.-8      	; 0x94 <.do_clear_bss_loop>
  9c:	72 d1       	rcall	.+740    	; 0x382 <main>
  9e:	96 c2       	rjmp	.+1324   	; 0x5cc <_exit>

000000a0 <__bad_interrupt>:
  a0:	af cf       	rjmp	.-162    	; 0x0 <__vectors>

000000a2 <usbCrc16>:
;   poly    r20+r21
;   scratch r23
;   resCrc  r24+r25 / r16+r17
;   ptr     X / Z
usbCrc16:
    mov     ptrL, argPtrL
  a2:	a8 2f       	mov	r26, r24
    mov     ptrH, argPtrH
  a4:	b9 2f       	mov	r27, r25
    ldi     resCrcL, 0
  a6:	80 e0       	ldi	r24, 0x00	; 0
    ldi     resCrcH, 0
  a8:	90 e0       	ldi	r25, 0x00	; 0
    ldi     polyL, lo8(0xa001)
  aa:	41 e0       	ldi	r20, 0x01	; 1
    ldi     polyH, hi8(0xa001)
  ac:	50 ea       	ldi	r21, 0xA0	; 160
    com     argLen      ; argLen = -argLen - 1: modified loop to ensure that carry is set
  ae:	60 95       	com	r22
    ldi     bitCnt, 0   ; loop counter with starnd condition = end condition
  b0:	30 e0       	ldi	r19, 0x00	; 0
    rjmp    usbCrcLoopEntry
  b2:	09 c0       	rjmp	.+18     	; 0xc6 <usbCrcLoopEntry>

000000b4 <usbCrcByteLoop>:
usbCrcByteLoop:
    ld      byte, ptr+
  b4:	2d 91       	ld	r18, X+
    eor     resCrcL, byte
  b6:	82 27       	eor	r24, r18

000000b8 <usbCrcBitLoop>:
usbCrcBitLoop:
    ror     resCrcH     ; carry is always set here (see brcs jumps to here)
  b8:	97 95       	ror	r25
    ror     resCrcL
  ba:	87 95       	ror	r24
    brcs    usbCrcNoXor
  bc:	10 f0       	brcs	.+4      	; 0xc2 <usbCrcNoXor>
    eor     resCrcL, polyL
  be:	84 27       	eor	r24, r20
    eor     resCrcH, polyH
  c0:	95 27       	eor	r25, r21

000000c2 <usbCrcNoXor>:
usbCrcNoXor:
    subi    bitCnt, 224 ; (8 * 224) % 256 = 0; this loop iterates 8 times
  c2:	30 5e       	subi	r19, 0xE0	; 224
    brcs    usbCrcBitLoop
  c4:	c8 f3       	brcs	.-14     	; 0xb8 <usbCrcBitLoop>

000000c6 <usbCrcLoopEntry>:
usbCrcLoopEntry:
    subi    argLen, -1
  c6:	6f 5f       	subi	r22, 0xFF	; 255
    brcs    usbCrcByteLoop
  c8:	a8 f3       	brcs	.-22     	; 0xb4 <usbCrcByteLoop>

000000ca <usbCrcReady>:
usbCrcReady:
    ret
  ca:	08 95       	ret

000000cc <usbCrc16Append>:

#endif /* USB_USE_FAST_CRC */

; extern unsigned usbCrc16Append(unsigned char *data, unsigned char len);
usbCrc16Append:
    rcall   usbCrc16
  cc:	ea df       	rcall	.-44     	; 0xa2 <usbCrc16>
    st      ptr+, resCrcL
  ce:	8d 93       	st	X+, r24
    st      ptr+, resCrcH
  d0:	9d 93       	st	X+, r25
    ret
  d2:	08 95       	ret

000000d4 <__vector_1>:
; Numbers in brackets are clocks counted from center of last sync bit
; when instruction starts

USB_INTR_VECTOR:
;order of registers pushed: YL, SREG YH, [sofError], bitcnt, shift, x1, x2, x3, x4, cnt
    push    YL                  ;[-25] push only what is necessary to sync with edge ASAP
  d4:	cf 93       	push	r28
    in      YL, SREG            ;[-23]
  d6:	cf b7       	in	r28, 0x3f	; 63
    push    YL                  ;[-22]
  d8:	cf 93       	push	r28
    push    YH                  ;[-20]
  da:	df 93       	push	r29

000000dc <waitForJ>:
;sync up with J to K edge during sync pattern -- use fastest possible loops
;The first part waits at most 1 bit long since we must be in sync pattern.
;YL is guarenteed to be < 0x80 because I flag is clear. When we jump to
;waitForJ, ensure that this prerequisite is met.
waitForJ:
    inc     YL
  dc:	c3 95       	inc	r28
    sbis    USBIN, USBMINUS
  de:	b1 9b       	sbis	0x16, 1	; 22
    brne    waitForJ        ; just make sure we have ANY timeout
  e0:	e9 f7       	brne	.-6      	; 0xdc <waitForJ>

000000e2 <waitForK>:
waitForK:
;The following code results in a sampling window of < 1/4 bit which meets the spec.
    sbis    USBIN, USBMINUS     ;[-15]
  e2:	b1 9b       	sbis	0x16, 1	; 22
    rjmp    foundK              ;[-14]
  e4:	0b c0       	rjmp	.+22     	; 0xfc <foundK>
    sbis    USBIN, USBMINUS
  e6:	b1 9b       	sbis	0x16, 1	; 22
    rjmp    foundK
  e8:	09 c0       	rjmp	.+18     	; 0xfc <foundK>
    sbis    USBIN, USBMINUS
  ea:	b1 9b       	sbis	0x16, 1	; 22
    rjmp    foundK
  ec:	07 c0       	rjmp	.+14     	; 0xfc <foundK>
    sbis    USBIN, USBMINUS
  ee:	b1 9b       	sbis	0x16, 1	; 22
    rjmp    foundK
  f0:	05 c0       	rjmp	.+10     	; 0xfc <foundK>
    sbis    USBIN, USBMINUS
  f2:	b1 9b       	sbis	0x16, 1	; 22
    rjmp    foundK
  f4:	03 c0       	rjmp	.+6      	; 0xfc <foundK>
    sbis    USBIN, USBMINUS
  f6:	b1 9b       	sbis	0x16, 1	; 22
    rjmp    foundK
  f8:	01 c0       	rjmp	.+2      	; 0xfc <foundK>
    sts     usbSofCount, YL
#endif  /* USB_COUNT_SOF */
#ifdef USB_SOF_HOOK
    USB_SOF_HOOK
#endif
    rjmp    sofError
  fa:	89 c0       	rjmp	.+274    	; 0x20e <sofError>

000000fc <foundK>:
foundK:                         ;[-12]
;{3, 5} after falling D- edge, average delay: 4 cycles [we want 5 for center sampling]
;we have 1 bit time for setup purposes, then sample again. Numbers in brackets
;are cycles from center of first sync (double K) bit after the instruction
    push    bitcnt              ;[-12]
  fc:	6f 93       	push	r22
;   [---]                       ;[-11]
    lds     YL, usbInputBufOffset;[-10]
  fe:	c0 91 82 00 	lds	r28, 0x0082	; 0x800082 <usbInputBufOffset>
;   [---]                       ;[-9]
    clr     YH                  ;[-8]
 102:	dd 27       	eor	r29, r29
    subi    YL, lo8(-(usbRxBuf));[-7] [rx loop init]
 104:	c7 57       	subi	r28, 0x77	; 119
    sbci    YH, hi8(-(usbRxBuf));[-6] [rx loop init]
 106:	df 4f       	sbci	r29, 0xFF	; 255
    push    shift               ;[-5]
 108:	2f 93       	push	r18
;   [---]                       ;[-4]
    ldi     bitcnt, 0x55        ;[-3] [rx loop init]
 10a:	65 e5       	ldi	r22, 0x55	; 85
    sbis    USBIN, USBMINUS     ;[-2] we want two bits K (sample 2 cycles too early)
 10c:	b1 9b       	sbis	0x16, 1	; 22
    rjmp    haveTwoBitsK        ;[-1]
 10e:	03 c0       	rjmp	.+6      	; 0x116 <haveTwoBitsK>
    pop     shift               ;[0] undo the push from before
 110:	2f 91       	pop	r18
    pop     bitcnt              ;[2] undo the push from before
 112:	6f 91       	pop	r22
    rjmp    waitForK            ;[4] this was not the end of sync, retry
 114:	e6 cf       	rjmp	.-52     	; 0xe2 <waitForK>

00000116 <haveTwoBitsK>:

;----------------------------------------------------------------------------
; push more registers and initialize values while we sample the first bits:
;----------------------------------------------------------------------------
haveTwoBitsK:
    push    x1              ;[1]
 116:	0f 93       	push	r16
    push    x2              ;[3]
 118:	1f 93       	push	r17
    push    x3              ;[5]
 11a:	4f 93       	push	r20
    ldi     shift, 0        ;[7]
 11c:	20 e0       	ldi	r18, 0x00	; 0
    ldi     x3, 1<<4        ;[8] [rx loop init] first sample is inverse bit, compensate that
 11e:	40 e1       	ldi	r20, 0x10	; 16
    push    x4              ;[9] == leap
 120:	5f 93       	push	r21

    in      x1, USBIN       ;[11] <-- sample bit 0
 122:	06 b3       	in	r16, 0x16	; 22
    andi    x1, USBMASK     ;[12]
 124:	06 70       	andi	r16, 0x06	; 6
    bst     x1, USBMINUS    ;[13]
 126:	01 fb       	bst	r16, 1
    bld     shift, 7        ;[14]
 128:	27 f9       	bld	r18, 7
    push    cnt             ;[15]
 12a:	3f 93       	push	r19
    ldi     leap, 0         ;[17] [rx loop init]
 12c:	50 e0       	ldi	r21, 0x00	; 0
    ldi     cnt, USB_BUFSIZE;[18] [rx loop init]
 12e:	3b e0       	ldi	r19, 0x0B	; 11
    rjmp    rxbit1          ;[19] arrives at [21]
 130:	39 c0       	rjmp	.+114    	; 0x1a4 <rxbit1>

00000132 <unstuff6>:

; duration of unstuffing code should be 10.66666667 cycles. We adjust "leap"
; accordingly to approximate this value in the long run.

unstuff6:
    andi    x2, USBMASK ;[03]
 132:	16 70       	andi	r17, 0x06	; 6
    ori     x3, 1<<6    ;[04] will not be shifted any more
 134:	40 64       	ori	r20, 0x40	; 64
    andi    shift, ~0x80;[05]
 136:	2f 77       	andi	r18, 0x7F	; 127
    mov     x1, x2      ;[06] sampled bit 7 is actually re-sampled bit 6
 138:	01 2f       	mov	r16, r17
    subi    leap, -1    ;[07] total duration = 11 bits -> subtract 1/3
 13a:	5f 5f       	subi	r21, 0xFF	; 255
    rjmp    didUnstuff6 ;[08]
 13c:	1e c0       	rjmp	.+60     	; 0x17a <didUnstuff6>

0000013e <unstuff7>:

unstuff7:
    ori     x3, 1<<7    ;[09] will not be shifted any more
 13e:	40 68       	ori	r20, 0x80	; 128
    in      x2, USBIN   ;[00] [10]  re-sample bit 7
 140:	16 b3       	in	r17, 0x16	; 22
    andi    x2, USBMASK ;[01]
 142:	16 70       	andi	r17, 0x06	; 6
    andi    shift, ~0x80;[02]
 144:	2f 77       	andi	r18, 0x7F	; 127
    subi    leap, 2     ;[03] total duration = 10 bits -> add 1/3
 146:	52 50       	subi	r21, 0x02	; 2
    rjmp    didUnstuff7 ;[04]
 148:	1f c0       	rjmp	.+62     	; 0x188 <didUnstuff7>

0000014a <unstuffEven>:

unstuffEven:
    ori     x3, 1<<6    ;[09] will be shifted right 6 times for bit 0
 14a:	40 64       	ori	r20, 0x40	; 64
    in      x1, USBIN   ;[00] [10]
 14c:	06 b3       	in	r16, 0x16	; 22
    andi    shift, ~0x80;[01]
 14e:	2f 77       	andi	r18, 0x7F	; 127
    andi    x1, USBMASK ;[02]
 150:	06 70       	andi	r16, 0x06	; 6
    breq    se0         ;[03]
 152:	d1 f1       	breq	.+116    	; 0x1c8 <se0>
    subi    leap, -1    ;[04] total duration = 11 bits -> subtract 1/3
 154:	5f 5f       	subi	r21, 0xFF	; 255
    nop2                ;[05]
 156:	00 c0       	rjmp	.+0      	; 0x158 <unstuffEven+0xe>
    rjmp    didUnstuffE ;[06]
 158:	23 c0       	rjmp	.+70     	; 0x1a0 <didUnstuffE>

0000015a <unstuffOdd>:

unstuffOdd:
    ori     x3, 1<<5    ;[09] will be shifted right 4 times for bit 1
 15a:	40 62       	ori	r20, 0x20	; 32
    in      x2, USBIN   ;[00] [10]
 15c:	16 b3       	in	r17, 0x16	; 22
    andi    shift, ~0x80;[01]
 15e:	2f 77       	andi	r18, 0x7F	; 127
    andi    x2, USBMASK ;[02]
 160:	16 70       	andi	r17, 0x06	; 6
    breq    se0         ;[03]
 162:	91 f1       	breq	.+100    	; 0x1c8 <se0>
    subi    leap, -1    ;[04] total duration = 11 bits -> subtract 1/3
 164:	5f 5f       	subi	r21, 0xFF	; 255
    nop2                ;[05]
 166:	00 c0       	rjmp	.+0      	; 0x168 <unstuffOdd+0xe>
    rjmp    didUnstuffO ;[06]
 168:	25 c0       	rjmp	.+74     	; 0x1b4 <didUnstuffO>

0000016a <rxByteLoop>:

rxByteLoop:
    andi    x1, USBMASK ;[03]
 16a:	06 70       	andi	r16, 0x06	; 6
    eor     x2, x1      ;[04]
 16c:	10 27       	eor	r17, r16
    subi    leap, 1     ;[05]
 16e:	51 50       	subi	r21, 0x01	; 1
    brpl    skipLeap    ;[06]
 170:	12 f4       	brpl	.+4      	; 0x176 <skipLeap>
    subi    leap, -3    ;1 one leap cycle every 3rd byte -> 85 + 1/3 cycles per byte
 172:	5d 5f       	subi	r21, 0xFD	; 253
	...

00000176 <skipLeap>:
    nop                 ;1
skipLeap:
    subi    x2, 1       ;[08]
 176:	11 50       	subi	r17, 0x01	; 1
    ror     shift       ;[09]
 178:	27 95       	ror	r18

0000017a <didUnstuff6>:
didUnstuff6:
    cpi     shift, 0xfc ;[10]
 17a:	2c 3f       	cpi	r18, 0xFC	; 252
    in      x2, USBIN   ;[00] [11] <-- sample bit 7
 17c:	16 b3       	in	r17, 0x16	; 22
    brcc    unstuff6    ;[01]
 17e:	c8 f6       	brcc	.-78     	; 0x132 <unstuff6>
    andi    x2, USBMASK ;[02]
 180:	16 70       	andi	r17, 0x06	; 6
    eor     x1, x2      ;[03]
 182:	01 27       	eor	r16, r17
    subi    x1, 1       ;[04]
 184:	01 50       	subi	r16, 0x01	; 1
    ror     shift       ;[05]
 186:	27 95       	ror	r18

00000188 <didUnstuff7>:
didUnstuff7:
    cpi     shift, 0xfc ;[06]
 188:	2c 3f       	cpi	r18, 0xFC	; 252
    brcc    unstuff7    ;[07]
 18a:	c8 f6       	brcc	.-78     	; 0x13e <unstuff7>
    eor     x3, shift   ;[08] reconstruct: x3 is 1 at bit locations we changed, 0 at others
 18c:	42 27       	eor	r20, r18
    st      y+, x3      ;[09] store data
 18e:	49 93       	st	Y+, r20

00000190 <rxBitLoop>:
rxBitLoop:
    in      x1, USBIN   ;[00] [11] <-- sample bit 0/2/4
 190:	06 b3       	in	r16, 0x16	; 22
    andi    x1, USBMASK ;[01]
 192:	06 70       	andi	r16, 0x06	; 6
    eor     x2, x1      ;[02]
 194:	10 27       	eor	r17, r16
    andi    x3, 0x3f    ;[03] topmost two bits reserved for 6 and 7
 196:	4f 73       	andi	r20, 0x3F	; 63
    subi    x2, 1       ;[04]
 198:	11 50       	subi	r17, 0x01	; 1
    ror     shift       ;[05]
 19a:	27 95       	ror	r18
    cpi     shift, 0xfc ;[06]
 19c:	2c 3f       	cpi	r18, 0xFC	; 252
    brcc    unstuffEven ;[07]
 19e:	a8 f6       	brcc	.-86     	; 0x14a <unstuffEven>

000001a0 <didUnstuffE>:
didUnstuffE:
    lsr     x3          ;[08]
 1a0:	46 95       	lsr	r20
    lsr     x3          ;[09]
 1a2:	46 95       	lsr	r20

000001a4 <rxbit1>:
rxbit1:
    in      x2, USBIN   ;[00] [10] <-- sample bit 1/3/5
 1a4:	16 b3       	in	r17, 0x16	; 22
    andi    x2, USBMASK ;[01]
 1a6:	16 70       	andi	r17, 0x06	; 6
    breq    se0         ;[02]
 1a8:	79 f0       	breq	.+30     	; 0x1c8 <se0>
    eor     x1, x2      ;[03]
 1aa:	01 27       	eor	r16, r17
    subi    x1, 1       ;[04]
 1ac:	01 50       	subi	r16, 0x01	; 1
    ror     shift       ;[05]
 1ae:	27 95       	ror	r18
    cpi     shift, 0xfc ;[06]
 1b0:	2c 3f       	cpi	r18, 0xFC	; 252
    brcc    unstuffOdd  ;[07]
 1b2:	98 f6       	brcc	.-90     	; 0x15a <unstuffOdd>

000001b4 <didUnstuffO>:
didUnstuffO:
    subi    bitcnt, 0xab;[08] == addi 0x55, 0x55 = 0x100/3
 1b4:	6b 5a       	subi	r22, 0xAB	; 171
    brcs    rxBitLoop   ;[09]
 1b6:	60 f3       	brcs	.-40     	; 0x190 <rxBitLoop>

    subi    cnt, 1      ;[10]
 1b8:	31 50       	subi	r19, 0x01	; 1
    in      x1, USBIN   ;[00] [11] <-- sample bit 6
 1ba:	06 b3       	in	r16, 0x16	; 22
    brcc    rxByteLoop  ;[01]
 1bc:	b0 f6       	brcc	.-84     	; 0x16a <rxByteLoop>
    rjmp    overflow
 1be:	00 c0       	rjmp	.+0      	; 0x1c0 <overflow>

000001c0 <overflow>:
*/

#define token   x1

overflow:
    ldi     x2, 1<<USB_INTR_PENDING_BIT
 1c0:	10 e4       	ldi	r17, 0x40	; 64
    USB_STORE_PENDING(x2)       ; clear any pending interrupts
 1c2:	1a bf       	out	0x3a, r17	; 58

000001c4 <ignorePacket>:
ignorePacket:
    clr     token
 1c4:	00 27       	eor	r16, r16
    rjmp    storeTokenAndReturn
 1c6:	17 c0       	rjmp	.+46     	; 0x1f6 <handleSetupOrOut>

000001c8 <se0>:
; Processing of received packet (numbers in brackets are cycles after center of SE0)
;----------------------------------------------------------------------------
;This is the only non-error exit point for the software receiver loop
;we don't check any CRCs here because there is no time left.
se0:
    subi    cnt, USB_BUFSIZE    ;[5]
 1c8:	3b 50       	subi	r19, 0x0B	; 11
    neg     cnt                 ;[6]
 1ca:	31 95       	neg	r19
    sub     YL, cnt             ;[7]
 1cc:	c3 1b       	sub	r28, r19
    sbci    YH, 0               ;[8]
 1ce:	d0 40       	sbci	r29, 0x00	; 0
    ldi     x2, 1<<USB_INTR_PENDING_BIT ;[9]
 1d0:	10 e4       	ldi	r17, 0x40	; 64
    USB_STORE_PENDING(x2)       ;[10] clear pending intr and check flag later. SE0 should be over.
 1d2:	1a bf       	out	0x3a, r17	; 58
    ld      token, y            ;[11]
 1d4:	08 81       	ld	r16, Y
    cpi     token, USBPID_DATA0 ;[13]
 1d6:	03 3c       	cpi	r16, 0xC3	; 195
    breq    handleData          ;[14]
 1d8:	f9 f0       	breq	.+62     	; 0x218 <handleData>
    cpi     token, USBPID_DATA1 ;[15]
 1da:	0b 34       	cpi	r16, 0x4B	; 75
    breq    handleData          ;[16]
 1dc:	e9 f0       	breq	.+58     	; 0x218 <handleData>
    lds     shift, usbDeviceAddr;[17]
 1de:	20 91 80 00 	lds	r18, 0x0080	; 0x800080 <usbDeviceAddr>
    ldd     x2, y+1             ;[19] ADDR and 1 bit endpoint number
 1e2:	19 81       	ldd	r17, Y+1	; 0x01
    lsl     x2                  ;[21] shift out 1 bit endpoint number
 1e4:	11 0f       	add	r17, r17
    cpse    x2, shift           ;[22]
 1e6:	12 13       	cpse	r17, r18
    rjmp    ignorePacket        ;[23]
 1e8:	ed cf       	rjmp	.-38     	; 0x1c4 <ignorePacket>
/* only compute endpoint number in x3 if required later */
#if USB_CFG_HAVE_INTRIN_ENDPOINT || USB_CFG_IMPLEMENT_FN_WRITEOUT
    ldd     x3, y+2             ;[24] endpoint number + crc
    rol     x3                  ;[26] shift in LSB of endpoint
#endif
    cpi     token, USBPID_IN    ;[27]
 1ea:	09 36       	cpi	r16, 0x69	; 105
    breq    handleIn            ;[28]
 1ec:	51 f1       	breq	.+84     	; 0x242 <handleIn>
    cpi     token, USBPID_SETUP ;[29]
 1ee:	0d 32       	cpi	r16, 0x2D	; 45
    breq    handleSetupOrOut    ;[30]
 1f0:	11 f0       	breq	.+4      	; 0x1f6 <handleSetupOrOut>
    cpi     token, USBPID_OUT   ;[31]
 1f2:	01 3e       	cpi	r16, 0xE1	; 225
    brne    ignorePacket        ;[32] must be ack, nak or whatever
 1f4:	39 f7       	brne	.-50     	; 0x1c4 <ignorePacket>

000001f6 <handleSetupOrOut>:
    andi    x3, 0xf             ;[32]
    breq    storeTokenAndReturn ;[33]
    mov     token, x3           ;[34] indicate that this is endpoint x OUT
#endif
storeTokenAndReturn:
    sts     usbCurrentTok, token;[35]
 1f6:	00 93 87 00 	sts	0x0087, r16	; 0x800087 <usbCurrentTok>

000001fa <doReturn>:
doReturn:
    POP_STANDARD                ;[37] 12...16 cycles
 1fa:	3f 91       	pop	r19
 1fc:	5f 91       	pop	r21
 1fe:	4f 91       	pop	r20
 200:	1f 91       	pop	r17
 202:	0f 91       	pop	r16
 204:	2f 91       	pop	r18
 206:	6f 91       	pop	r22
    USB_LOAD_PENDING(YL)        ;[49]
 208:	ca b7       	in	r28, 0x3a	; 58
    sbrc    YL, USB_INTR_PENDING_BIT;[50] check whether data is already arriving
 20a:	c6 fd       	sbrc	r28, 6
    rjmp    waitForJ            ;[51] save the pops and pushes -- a new interrupt is already pending
 20c:	67 cf       	rjmp	.-306    	; 0xdc <waitForJ>

0000020e <sofError>:
sofError:
    POP_RETI                    ;macro call
 20e:	df 91       	pop	r29
 210:	cf 91       	pop	r28
 212:	cf bf       	out	0x3f, r28	; 63
 214:	cf 91       	pop	r28
    reti
 216:	18 95       	reti

00000218 <handleData>:

handleData:
#if USB_CFG_CHECK_CRC
    CRC_CLEANUP_AND_CHECK       ; jumps to ignorePacket if CRC error
#endif
    lds     shift, usbCurrentTok;[18]
 218:	20 91 87 00 	lds	r18, 0x0087	; 0x800087 <usbCurrentTok>
    tst     shift               ;[20]
 21c:	22 23       	and	r18, r18
    breq    doReturn            ;[21]
 21e:	69 f3       	breq	.-38     	; 0x1fa <doReturn>
    lds     x2, usbRxLen        ;[22]
 220:	10 91 85 00 	lds	r17, 0x0085	; 0x800085 <usbRxLen>
    tst     x2                  ;[24]
 224:	11 23       	and	r17, r17
    brne    sendNakAndReti      ;[25]
 226:	39 f5       	brne	.+78     	; 0x276 <sendNakAndReti>
; 2006-03-11: The following two lines fix a problem where the device was not
; recognized if usbPoll() was called less frequently than once every 4 ms.
    cpi     cnt, 4              ;[26] zero sized data packets are status phase only -- ignore and ack
 228:	34 30       	cpi	r19, 0x04	; 4
    brmi    sendAckAndReti      ;[27] keep rx buffer clean -- we must not NAK next SETUP
 22a:	3a f1       	brmi	.+78     	; 0x27a <sendAckAndReti>
#if USB_CFG_CHECK_DATA_TOGGLING
    sts     usbCurrentDataToken, token  ; store for checking by C code
#endif
    sts     usbRxLen, cnt       ;[28] store received data, swap buffers
 22c:	30 93 85 00 	sts	0x0085, r19	; 0x800085 <usbRxLen>
    sts     usbRxToken, shift   ;[30]
 230:	20 93 81 00 	sts	0x0081, r18	; 0x800081 <usbRxToken>
    lds     x2, usbInputBufOffset;[32] swap buffers
 234:	10 91 82 00 	lds	r17, 0x0082	; 0x800082 <usbInputBufOffset>
    ldi     cnt, USB_BUFSIZE    ;[34]
 238:	3b e0       	ldi	r19, 0x0B	; 11
    sub     cnt, x2             ;[35]
 23a:	31 1b       	sub	r19, r17
    sts     usbInputBufOffset, cnt;[36] buffers now swapped
 23c:	30 93 82 00 	sts	0x0082, r19	; 0x800082 <usbInputBufOffset>
    rjmp    sendAckAndReti      ;[38] 40 + 17 = 57 until SOP
 240:	1c c0       	rjmp	.+56     	; 0x27a <sendAckAndReti>

00000242 <handleIn>:

handleIn:
;We don't send any data as long as the C code has not processed the current
;input data and potentially updated the output data. That's more efficient
;in terms of code size than clearing the tx buffers when a packet is received.
    lds     x1, usbRxLen        ;[30]
 242:	00 91 85 00 	lds	r16, 0x0085	; 0x800085 <usbRxLen>
    cpi     x1, 1               ;[32] negative values are flow control, 0 means "buffer free"
 246:	01 30       	cpi	r16, 0x01	; 1
    brge    sendNakAndReti      ;[33] unprocessed input packet?
 248:	b4 f4       	brge	.+44     	; 0x276 <sendNakAndReti>
    ldi     x1, USBPID_NAK      ;[34] prepare value for usbTxLen
 24a:	0a e5       	ldi	r16, 0x5A	; 90
    brne    sendNakAndReti      ;[36]
#else
    brne    handleIn1           ;[36]
#endif
#endif
    lds     cnt, usbTxLen       ;[37]
 24c:	30 91 71 00 	lds	r19, 0x0071	; 0x800071 <usbTxLen>
    sbrc    cnt, 4              ;[39] all handshake tokens have bit 4 set
 250:	34 fd       	sbrc	r19, 4
    rjmp    sendCntAndReti      ;[40] 42 + 16 = 58 until SOP
 252:	14 c0       	rjmp	.+40     	; 0x27c <sendCntAndReti>
    sts     usbTxLen, x1        ;[41] x1 == USBPID_NAK from above
 254:	00 93 71 00 	sts	0x0071, r16	; 0x800071 <usbTxLen>
    ldi     YL, lo8(usbTxBuf)   ;[43]
 258:	c5 e7       	ldi	r28, 0x75	; 117
    ldi     YH, hi8(usbTxBuf)   ;[44]
 25a:	d0 e0       	ldi	r29, 0x00	; 0
    rjmp    usbSendAndReti      ;[45] 57 + 12 = 59 until SOP
 25c:	13 c0       	rjmp	.+38     	; 0x284 <usbSendAndReti>

0000025e <bitstuffN>:
; J = (D+ = 0), (D- = 1)
; K = (D+ = 1), (D- = 0)
; Spec allows 7.5 bit times from EOP to SOP for replies

bitstuffN:
    eor     x1, x4          ;[5]
 25e:	05 27       	eor	r16, r21
    ldi     x2, 0           ;[6]
 260:	10 e0       	ldi	r17, 0x00	; 0
    nop2                    ;[7]
 262:	00 c0       	rjmp	.+0      	; 0x264 <__stack+0x5>
    nop                     ;[9]
 264:	00 00       	nop
    out     USBOUT, x1      ;[10] <-- out
 266:	08 bb       	out	0x18, r16	; 24
    rjmp    didStuffN       ;[0]
 268:	1a c0       	rjmp	.+52     	; 0x29e <didStuffN>

0000026a <bitstuff6>:
    
bitstuff6:
    eor     x1, x4          ;[5]
 26a:	05 27       	eor	r16, r21
    ldi     x2, 0           ;[6] Carry is zero due to brcc
 26c:	10 e0       	ldi	r17, 0x00	; 0
    rol     shift           ;[7] compensate for ror shift at branch destination
 26e:	22 1f       	adc	r18, r18
    rjmp    didStuff6       ;[8]
 270:	1d c0       	rjmp	.+58     	; 0x2ac <didStuff6>

00000272 <bitstuff7>:

bitstuff7:
    ldi     x2, 0           ;[2] Carry is zero due to brcc
 272:	10 e0       	ldi	r17, 0x00	; 0
    rjmp    didStuff7       ;[3]
 274:	21 c0       	rjmp	.+66     	; 0x2b8 <didStuff7>

00000276 <sendNakAndReti>:


sendNakAndReti:
    ldi     x3, USBPID_NAK  ;[-18]
 276:	4a e5       	ldi	r20, 0x5A	; 90
    rjmp    sendX3AndReti   ;[-17]
 278:	02 c0       	rjmp	.+4      	; 0x27e <sendX3AndReti>

0000027a <sendAckAndReti>:
sendAckAndReti:
    ldi     cnt, USBPID_ACK ;[-17]
 27a:	32 ed       	ldi	r19, 0xD2	; 210

0000027c <sendCntAndReti>:
sendCntAndReti:
    mov     x3, cnt         ;[-16]
 27c:	43 2f       	mov	r20, r19

0000027e <sendX3AndReti>:
sendX3AndReti:
    ldi     YL, 20          ;[-15] x3==r20 address is 20
 27e:	c4 e1       	ldi	r28, 0x14	; 20
    ldi     YH, 0           ;[-14]
 280:	d0 e0       	ldi	r29, 0x00	; 0
    ldi     cnt, 2          ;[-13]
 282:	32 e0       	ldi	r19, 0x02	; 2

00000284 <usbSendAndReti>:
;uses: x1...x4, btcnt, shift, cnt, Y
;Numbers in brackets are time since first bit of sync pattern is sent
;We don't match the transfer rate exactly (don't insert leap cycles every third
;byte) because the spec demands only 1.5% precision anyway.
usbSendAndReti:             ; 12 cycles until SOP
    in      x2, USBDDR      ;[-12]
 284:	17 b3       	in	r17, 0x17	; 23
    ori     x2, USBMASK     ;[-11]
 286:	16 60       	ori	r17, 0x06	; 6
    sbi     USBOUT, USBMINUS;[-10] prepare idle state; D+ and D- must have been 0 (no pullups)
 288:	c1 9a       	sbi	0x18, 1	; 24
    in      x1, USBOUT      ;[-8] port mirror for tx loop
 28a:	08 b3       	in	r16, 0x18	; 24
    out     USBDDR, x2      ;[-7] <- acquire bus
 28c:	17 bb       	out	0x17, r17	; 23
; need not init x2 (bitstuff history) because sync starts with 0
    ldi     x4, USBMASK     ;[-6] exor mask
 28e:	56 e0       	ldi	r21, 0x06	; 6
    ldi     shift, 0x80     ;[-5] sync byte is first byte sent
 290:	20 e8       	ldi	r18, 0x80	; 128

00000292 <txByteLoop>:
txByteLoop:
    ldi     bitcnt, 0x35    ;[-4] [6] binary 0011 0101
 292:	65 e3       	ldi	r22, 0x35	; 53

00000294 <txBitLoop>:
txBitLoop:
    sbrs    shift, 0        ;[-3] [7]
 294:	20 ff       	sbrs	r18, 0
    eor     x1, x4          ;[-2] [8]
 296:	05 27       	eor	r16, r21
    out     USBOUT, x1      ;[-1] [9] <-- out N
 298:	08 bb       	out	0x18, r16	; 24
    ror     shift           ;[0] [10]
 29a:	27 95       	ror	r18
    ror     x2              ;[1]
 29c:	17 95       	ror	r17

0000029e <didStuffN>:
didStuffN:
    cpi     x2, 0xfc        ;[2]
 29e:	1c 3f       	cpi	r17, 0xFC	; 252
    brcc    bitstuffN       ;[3]
 2a0:	f0 f6       	brcc	.-68     	; 0x25e <bitstuffN>
    lsr     bitcnt          ;[4]
 2a2:	66 95       	lsr	r22
    brcc    txBitLoop       ;[5]
 2a4:	b8 f7       	brcc	.-18     	; 0x294 <txBitLoop>
    brne    txBitLoop       ;[6]
 2a6:	b1 f7       	brne	.-20     	; 0x294 <txBitLoop>

    sbrs    shift, 0        ;[7]
 2a8:	20 ff       	sbrs	r18, 0
    eor     x1, x4          ;[8]
 2aa:	05 27       	eor	r16, r21

000002ac <didStuff6>:
didStuff6:
    out     USBOUT, x1      ;[-1] [9] <-- out 6
 2ac:	08 bb       	out	0x18, r16	; 24
    ror     shift           ;[0] [10]
 2ae:	27 95       	ror	r18
    ror     x2              ;[1]
 2b0:	17 95       	ror	r17
    cpi     x2, 0xfc        ;[2]
 2b2:	1c 3f       	cpi	r17, 0xFC	; 252
    brcc    bitstuff6       ;[3]
 2b4:	d0 f6       	brcc	.-76     	; 0x26a <bitstuff6>
    ror     shift           ;[4]
 2b6:	27 95       	ror	r18

000002b8 <didStuff7>:
didStuff7:
    ror     x2              ;[5]
 2b8:	17 95       	ror	r17
    sbrs    x2, 7           ;[6]
 2ba:	17 ff       	sbrs	r17, 7
    eor     x1, x4          ;[7]
 2bc:	05 27       	eor	r16, r21
    nop                     ;[8]
 2be:	00 00       	nop
    cpi     x2, 0xfc        ;[9]
 2c0:	1c 3f       	cpi	r17, 0xFC	; 252
    out     USBOUT, x1      ;[-1][10] <-- out 7
 2c2:	08 bb       	out	0x18, r16	; 24
    brcc    bitstuff7       ;[0] [11]
 2c4:	b0 f6       	brcc	.-84     	; 0x272 <bitstuff7>
    ld      shift, y+       ;[1]
 2c6:	29 91       	ld	r18, Y+
    dec     cnt             ;[3]
 2c8:	3a 95       	dec	r19
    brne    txByteLoop      ;[4]
 2ca:	19 f7       	brne	.-58     	; 0x292 <txByteLoop>
;make SE0:
    cbr     x1, USBMASK     ;[5] prepare SE0 [spec says EOP may be 21 to 25 cycles]
 2cc:	09 7f       	andi	r16, 0xF9	; 249
    lds     x2, usbNewDeviceAddr;[6]
 2ce:	10 91 86 00 	lds	r17, 0x0086	; 0x800086 <usbNewDeviceAddr>
    lsl     x2              ;[8] we compare with left shifted address
 2d2:	11 0f       	add	r17, r17
    subi    YL, 20 + 2      ;[9] Only assign address on data packets, not ACK/NAK in x3
 2d4:	c6 51       	subi	r28, 0x16	; 22
    sbci    YH, 0           ;[10]
 2d6:	d0 40       	sbci	r29, 0x00	; 0
    out     USBOUT, x1      ;[11] <-- out SE0 -- from now 2 bits = 22 cycles until bus idle
 2d8:	08 bb       	out	0x18, r16	; 24
;2006-03-06: moved transfer of new address to usbDeviceAddr from C-Code to asm:
;set address only after data packet was sent, not after handshake
    breq    skipAddrAssign  ;[0]
 2da:	11 f0       	breq	.+4      	; 0x2e0 <skipAddrAssign>
    sts     usbDeviceAddr, x2; if not skipped: SE0 is one cycle longer
 2dc:	10 93 80 00 	sts	0x0080, r17	; 0x800080 <usbDeviceAddr>

000002e0 <skipAddrAssign>:
skipAddrAssign:
;end of usbDeviceAddress transfer
    ldi     x2, 1<<USB_INTR_PENDING_BIT;[2] int0 occurred during TX -- clear pending flag
 2e0:	10 e4       	ldi	r17, 0x40	; 64
    USB_STORE_PENDING(x2)   ;[3]
 2e2:	1a bf       	out	0x3a, r17	; 58
    ori     x1, USBIDLE     ;[4]
 2e4:	02 60       	ori	r16, 0x02	; 2
    in      x2, USBDDR      ;[5]
 2e6:	17 b3       	in	r17, 0x17	; 23
    cbr     x2, USBMASK     ;[6] set both pins to input
 2e8:	19 7f       	andi	r17, 0xF9	; 249
    mov     x3, x1          ;[7]
 2ea:	40 2f       	mov	r20, r16
    cbr     x3, USBMASK     ;[8] configure no pullup on both pins
 2ec:	49 7f       	andi	r20, 0xF9	; 249
    ldi     x4, 4           ;[9]
 2ee:	54 e0       	ldi	r21, 0x04	; 4

000002f0 <se0Delay>:
se0Delay:
    dec     x4              ;[10] [13] [16] [19]
 2f0:	5a 95       	dec	r21
    brne    se0Delay        ;[11] [14] [17] [20]
 2f2:	f1 f7       	brne	.-4      	; 0x2f0 <se0Delay>
    out     USBOUT, x1      ;[21] <-- out J (idle) -- end of SE0 (EOP signal)
 2f4:	08 bb       	out	0x18, r16	; 24
    out     USBDDR, x2      ;[22] <-- release bus now
 2f6:	17 bb       	out	0x17, r17	; 23
    out     USBOUT, x3      ;[23] <-- ensure no pull-up resistors are active
 2f8:	48 bb       	out	0x18, r20	; 24
    rjmp    doReturn
 2fa:	7f cf       	rjmp	.-258    	; 0x1fa <doReturn>

000002fc <usbFunctionSetup>:
	
	for(i = 0; dataReceived < dataLength && i < len; i++, dataReceived++)
	replyBuf[dataReceived] = data[i];
	
	return (dataReceived == dataLength); // 1 if we received it all, 0 if not
}
 2fc:	fc 01       	movw	r30, r24
 2fe:	81 81       	ldd	r24, Z+1	; 0x01
 300:	82 30       	cpi	r24, 0x02	; 2
 302:	a1 f0       	breq	.+40     	; 0x32c <usbFunctionSetup+0x30>
 304:	28 f4       	brcc	.+10     	; 0x310 <usbFunctionSetup+0x14>
 306:	88 23       	and	r24, r24
 308:	69 f0       	breq	.+26     	; 0x324 <usbFunctionSetup+0x28>
 30a:	81 30       	cpi	r24, 0x01	; 1
 30c:	31 f0       	breq	.+12     	; 0x31a <usbFunctionSetup+0x1e>
 30e:	35 c0       	rjmp	.+106    	; 0x37a <usbFunctionSetup+0x7e>
 310:	83 30       	cpi	r24, 0x03	; 3
 312:	a1 f0       	breq	.+40     	; 0x33c <usbFunctionSetup+0x40>
 314:	84 30       	cpi	r24, 0x04	; 4
 316:	29 f1       	breq	.+74     	; 0x362 <usbFunctionSetup+0x66>
 318:	30 c0       	rjmp	.+96     	; 0x37a <usbFunctionSetup+0x7e>
 31a:	88 b3       	in	r24, 0x18	; 24
 31c:	81 60       	ori	r24, 0x01	; 1
 31e:	88 bb       	out	0x18, r24	; 24
 320:	80 e0       	ldi	r24, 0x00	; 0
 322:	08 95       	ret
 324:	98 b3       	in	r25, 0x18	; 24
 326:	9e 7f       	andi	r25, 0xFE	; 254
 328:	98 bb       	out	0x18, r25	; 24
 32a:	08 95       	ret
 32c:	80 e6       	ldi	r24, 0x60	; 96
 32e:	90 e0       	ldi	r25, 0x00	; 0
 330:	90 93 84 00 	sts	0x0084, r25	; 0x800084 <usbMsgPtr+0x1>
 334:	80 93 83 00 	sts	0x0083, r24	; 0x800083 <usbMsgPtr>
 338:	80 e1       	ldi	r24, 0x10	; 16
 33a:	08 95       	ret
 33c:	82 81       	ldd	r24, Z+2	; 0x02
 33e:	a0 e6       	ldi	r26, 0x60	; 96
 340:	b0 e0       	ldi	r27, 0x00	; 0
 342:	17 96       	adiw	r26, 0x07	; 7
 344:	8c 93       	st	X, r24
 346:	17 97       	sbiw	r26, 0x07	; 7
 348:	83 81       	ldd	r24, Z+3	; 0x03
 34a:	18 96       	adiw	r26, 0x08	; 8
 34c:	8c 93       	st	X, r24
 34e:	18 97       	sbiw	r26, 0x08	; 8
 350:	84 81       	ldd	r24, Z+4	; 0x04
 352:	19 96       	adiw	r26, 0x09	; 9
 354:	8c 93       	st	X, r24
 356:	19 97       	sbiw	r26, 0x09	; 9
 358:	85 81       	ldd	r24, Z+5	; 0x05
 35a:	1a 96       	adiw	r26, 0x0a	; 10
 35c:	8c 93       	st	X, r24
 35e:	80 e0       	ldi	r24, 0x00	; 0
 360:	08 95       	ret
 362:	86 81       	ldd	r24, Z+6	; 0x06
 364:	80 93 72 00 	sts	0x0072, r24	; 0x800072 <__data_end>
 368:	10 92 73 00 	sts	0x0073, r1	; 0x800073 <dataReceived>
 36c:	81 31       	cpi	r24, 0x11	; 17
 36e:	38 f0       	brcs	.+14     	; 0x37e <usbFunctionSetup+0x82>
 370:	80 e1       	ldi	r24, 0x10	; 16
 372:	80 93 72 00 	sts	0x0072, r24	; 0x800072 <__data_end>
 376:	8f ef       	ldi	r24, 0xFF	; 255
 378:	08 95       	ret
 37a:	80 e0       	ldi	r24, 0x00	; 0
 37c:	08 95       	ret
 37e:	8f ef       	ldi	r24, 0xFF	; 255
 380:	08 95       	ret

00000382 <main>:

int main() {
	uchar i;
	
	bit_set(DDRB, BIT(0));
 382:	87 b3       	in	r24, 0x17	; 23
 384:	81 60       	ori	r24, 0x01	; 1
 386:	87 bb       	out	0x17, r24	; 23
__attribute__ ((__always_inline__))
void wdt_enable (const uint8_t value)
{
	if (_SFR_IO_REG_P (_WD_CONTROL_REG))
	{
		__asm__ __volatile__ (
 388:	9e e0       	ldi	r25, 0x0E	; 14
 38a:	88 e1       	ldi	r24, 0x18	; 24
 38c:	0f b6       	in	r0, 0x3f	; 63
 38e:	f8 94       	cli
 390:	a8 95       	wdr
 392:	81 bd       	out	0x21, r24	; 33
 394:	0f be       	out	0x3f, r0	; 63
 396:	91 bd       	out	0x21, r25	; 33

	wdt_enable(WDTO_1S); // enable 1s watchdog timer

	usbInit();
 398:	12 d1       	rcall	.+548    	; 0x5be <usbInit>
	
	usbDeviceDisconnect(); // enforce re-enumeration
 39a:	87 b3       	in	r24, 0x17	; 23
 39c:	82 60       	ori	r24, 0x02	; 2
 39e:	87 bb       	out	0x17, r24	; 23
	for(i = 0; i<250; i++) { // wait 500 ms
 3a0:	80 e0       	ldi	r24, 0x00	; 0
 3a2:	08 c0       	rjmp	.+16     	; 0x3b4 <main+0x32>
		wdt_reset(); // keep the watchdog happy
 3a4:	a8 95       	wdr
	#else
		//round up by default
		__ticks_dc = (uint32_t)(ceil(fabs(__tmp)));
	#endif

	__builtin_avr_delay_cycles(__ticks_dc);
 3a6:	ef e3       	ldi	r30, 0x3F	; 63
 3a8:	ff e1       	ldi	r31, 0x1F	; 31
 3aa:	31 97       	sbiw	r30, 0x01	; 1
 3ac:	f1 f7       	brne	.-4      	; 0x3aa <main+0x28>
 3ae:	00 c0       	rjmp	.+0      	; 0x3b0 <main+0x2e>
 3b0:	00 00       	nop
	wdt_enable(WDTO_1S); // enable 1s watchdog timer

	usbInit();
	
	usbDeviceDisconnect(); // enforce re-enumeration
	for(i = 0; i<250; i++) { // wait 500 ms
 3b2:	8f 5f       	subi	r24, 0xFF	; 255
 3b4:	8a 3f       	cpi	r24, 0xFA	; 250
 3b6:	b0 f3       	brcs	.-20     	; 0x3a4 <main+0x22>
		wdt_reset(); // keep the watchdog happy
		_delay_ms(2);
	}
	usbDeviceConnect();
 3b8:	87 b3       	in	r24, 0x17	; 23
 3ba:	8d 7f       	andi	r24, 0xFD	; 253
 3bc:	87 bb       	out	0x17, r24	; 23
	
	sei(); // Enable interrupts after re-enumeration
 3be:	78 94       	sei
	
	while(1) {
		wdt_reset(); // keep the watchdog happy
 3c0:	a8 95       	wdr
		usbPoll();
 3c2:	22 d0       	rcall	.+68     	; 0x408 <usbPoll>
 3c4:	fd cf       	rjmp	.-6      	; 0x3c0 <main+0x3e>

000003c6 <usbDeviceRead>:

/* This function is similar to usbFunctionRead(), but it's also called for
 * data handled automatically by the driver (e.g. descriptor reads).
 */
static uchar usbDeviceRead(uchar *data, uchar len)
{
 3c6:	dc 01       	movw	r26, r24
 3c8:	86 2f       	mov	r24, r22
    if(len > 0){    /* don't bother app with 0 sized reads */
 3ca:	66 23       	and	r22, r22
 3cc:	e1 f0       	breq	.+56     	; 0x406 <__LOCK_REGION_LENGTH__+0x6>
            len = usbFunctionRead(data, len);
        }else
#endif
        {
            uchar i = len;
            usbMsgPtr_t r = usbMsgPtr;
 3ce:	e0 91 83 00 	lds	r30, 0x0083	; 0x800083 <usbMsgPtr>
 3d2:	f0 91 84 00 	lds	r31, 0x0084	; 0x800084 <usbMsgPtr+0x1>
            if(usbMsgFlags & USB_FLG_MSGPTR_IS_ROM){    /* ROM data */
 3d6:	90 91 74 00 	lds	r25, 0x0074	; 0x800074 <usbMsgFlags>
 3da:	96 ff       	sbrs	r25, 6
 3dc:	09 c0       	rjmp	.+18     	; 0x3f0 <usbDeviceRead+0x2a>
 3de:	96 2f       	mov	r25, r22
                do{
                    uchar c = USB_READ_FLASH(r);    /* assign to char size variable to enforce byte ops */
 3e0:	24 91       	lpm	r18, Z
                    *data++ = c;
 3e2:	2c 93       	st	X, r18
                    r++;
 3e4:	31 96       	adiw	r30, 0x01	; 1
                }while(--i);
 3e6:	91 50       	subi	r25, 0x01	; 1
            uchar i = len;
            usbMsgPtr_t r = usbMsgPtr;
            if(usbMsgFlags & USB_FLG_MSGPTR_IS_ROM){    /* ROM data */
                do{
                    uchar c = USB_READ_FLASH(r);    /* assign to char size variable to enforce byte ops */
                    *data++ = c;
 3e8:	11 96       	adiw	r26, 0x01	; 1
                    r++;
                }while(--i);
 3ea:	91 11       	cpse	r25, r1
 3ec:	f9 cf       	rjmp	.-14     	; 0x3e0 <usbDeviceRead+0x1a>
 3ee:	07 c0       	rjmp	.+14     	; 0x3fe <usbDeviceRead+0x38>
 3f0:	96 2f       	mov	r25, r22
            }else{  /* RAM data */
                do{
                    *data++ = *((uchar *)r);
 3f2:	21 91       	ld	r18, Z+
 3f4:	2c 93       	st	X, r18
                    r++;
                }while(--i);
 3f6:	91 50       	subi	r25, 0x01	; 1
                    *data++ = c;
                    r++;
                }while(--i);
            }else{  /* RAM data */
                do{
                    *data++ = *((uchar *)r);
 3f8:	11 96       	adiw	r26, 0x01	; 1
                    r++;
                }while(--i);
 3fa:	91 11       	cpse	r25, r1
 3fc:	fa cf       	rjmp	.-12     	; 0x3f2 <usbDeviceRead+0x2c>
            }
            usbMsgPtr = r;
 3fe:	f0 93 84 00 	sts	0x0084, r31	; 0x800084 <usbMsgPtr+0x1>
 402:	e0 93 83 00 	sts	0x0083, r30	; 0x800083 <usbMsgPtr>
        }
    }
    return len;
}
 406:	08 95       	ret

00000408 <usbPoll>:
}

/* ------------------------------------------------------------------------- */

USB_PUBLIC void usbPoll(void)
{
 408:	cf 93       	push	r28
 40a:	df 93       	push	r29
schar   len;
uchar   i;

    len = usbRxLen - 3;
 40c:	80 91 85 00 	lds	r24, 0x0085	; 0x800085 <usbRxLen>
 410:	83 50       	subi	r24, 0x03	; 3
    if(len >= 0){
 412:	0a f4       	brpl	.+2      	; 0x416 <usbPoll+0xe>
 414:	98 c0       	rjmp	.+304    	; 0x546 <usbPoll+0x13e>
 * need data integrity checks with this driver, check the CRC in your app
 * code and report errors back to the host. Since the ACK was already sent,
 * retries must be handled on application level.
 * unsigned crc = usbCrc16(buffer + 1, usbRxLen - 3);
 */
        usbProcessRx(usbRxBuf + USB_BUFSIZE + 1 - usbInputBufOffset, len);
 416:	90 91 82 00 	lds	r25, 0x0082	; 0x800082 <usbInputBufOffset>
 41a:	2c e0       	ldi	r18, 0x0C	; 12
 41c:	30 e0       	ldi	r19, 0x00	; 0
 41e:	29 1b       	sub	r18, r25
 420:	31 09       	sbc	r19, r1
 422:	e9 01       	movw	r28, r18
 424:	c7 57       	subi	r28, 0x77	; 119
 426:	df 4f       	sbci	r29, 0xFF	; 255
    if(usbRxToken < 0x10){  /* OUT to endpoint != 0: endpoint number in usbRxToken */
        usbFunctionWriteOut(data, len);
        return;
    }
#endif
    if(usbRxToken == (uchar)USBPID_SETUP){
 428:	90 91 81 00 	lds	r25, 0x0081	; 0x800081 <usbRxToken>
 42c:	9d 32       	cpi	r25, 0x2D	; 45
 42e:	09 f0       	breq	.+2      	; 0x432 <usbPoll+0x2a>
 430:	88 c0       	rjmp	.+272    	; 0x542 <usbPoll+0x13a>
        if(len != 8)    /* Setup size must be always 8 bytes. Ignore otherwise. */
 432:	88 30       	cpi	r24, 0x08	; 8
 434:	09 f0       	breq	.+2      	; 0x438 <usbPoll+0x30>
 436:	85 c0       	rjmp	.+266    	; 0x542 <usbPoll+0x13a>
            return;
        usbMsgLen_t replyLen;
        usbTxBuf[0] = USBPID_DATA0;         /* initialize data toggling */
 438:	83 ec       	ldi	r24, 0xC3	; 195
 43a:	80 93 75 00 	sts	0x0075, r24	; 0x800075 <usbTxBuf>
        usbTxLen = USBPID_NAK;              /* abort pending transmit */
 43e:	8a e5       	ldi	r24, 0x5A	; 90
 440:	80 93 71 00 	sts	0x0071, r24	; 0x800071 <usbTxLen>
        usbMsgFlags = 0;
 444:	10 92 74 00 	sts	0x0074, r1	; 0x800074 <usbMsgFlags>
        uchar type = rq->bmRequestType & USBRQ_TYPE_MASK;
 448:	88 81       	ld	r24, Y
 44a:	80 76       	andi	r24, 0x60	; 96
        if(type != USBRQ_TYPE_STANDARD){    /* standard requests are handled by driver */
 44c:	19 f0       	breq	.+6      	; 0x454 <usbPoll+0x4c>
            replyLen = usbFunctionSetup(data);
 44e:	ce 01       	movw	r24, r28
 450:	55 df       	rcall	.-342    	; 0x2fc <usbFunctionSetup>
 452:	6e c0       	rjmp	.+220    	; 0x530 <usbPoll+0x128>
 */
static inline usbMsgLen_t usbDriverSetup(usbRequest_t *rq)
{
usbMsgLen_t len = 0;
uchar   *dataPtr = usbTxBuf + 9;    /* there are 2 bytes free space at the end of the buffer */
uchar   value = rq->wValue.bytes[0];
 454:	9a 81       	ldd	r25, Y+2	; 0x02
#if USB_CFG_IMPLEMENT_HALT
uchar   index = rq->wIndex.bytes[0];
#endif

    dataPtr[0] = 0; /* default reply common to USBRQ_GET_STATUS and USBRQ_GET_INTERFACE */
 456:	10 92 7e 00 	sts	0x007E, r1	; 0x80007e <usbTxBuf+0x9>
    SWITCH_START(rq->bRequest)
 45a:	89 81       	ldd	r24, Y+1	; 0x01
    SWITCH_CASE(USBRQ_GET_STATUS)           /* 0 */
 45c:	81 11       	cpse	r24, r1
 45e:	06 c0       	rjmp	.+12     	; 0x46c <usbPoll+0x64>
            dataPtr[0] =  USB_CFG_IS_SELF_POWERED;
#if USB_CFG_IMPLEMENT_HALT
        if(recipient == USBRQ_RCPT_ENDPOINT && index == 0x81)   /* request status for endpoint 1 */
            dataPtr[0] = usbTxLen1 == USBPID_STALL;
#endif
        dataPtr[1] = 0;
 460:	10 92 7f 00 	sts	0x007F, r1	; 0x80007f <usbTxBuf+0xa>
 * standard requests instead of class and custom requests.
 */
static inline usbMsgLen_t usbDriverSetup(usbRequest_t *rq)
{
usbMsgLen_t len = 0;
uchar   *dataPtr = usbTxBuf + 9;    /* there are 2 bytes free space at the end of the buffer */
 464:	2e e7       	ldi	r18, 0x7E	; 126
 466:	30 e0       	ldi	r19, 0x00	; 0
#if USB_CFG_IMPLEMENT_HALT
        if(recipient == USBRQ_RCPT_ENDPOINT && index == 0x81)   /* request status for endpoint 1 */
            dataPtr[0] = usbTxLen1 == USBPID_STALL;
#endif
        dataPtr[1] = 0;
        len = 2;
 468:	82 e0       	ldi	r24, 0x02	; 2
 46a:	5e c0       	rjmp	.+188    	; 0x528 <usbPoll+0x120>
        if(value == 0 && index == 0x81){    /* feature 0 == HALT for endpoint == 1 */
            usbTxLen1 = rq->bRequest == USBRQ_CLEAR_FEATURE ? USBPID_NAK : USBPID_STALL;
            usbResetDataToggling();
        }
#endif
    SWITCH_CASE(USBRQ_SET_ADDRESS)          /* 5 */
 46c:	85 30       	cpi	r24, 0x05	; 5
 46e:	31 f4       	brne	.+12     	; 0x47c <usbPoll+0x74>
        usbNewDeviceAddr = value;
 470:	90 93 86 00 	sts	0x0086, r25	; 0x800086 <usbNewDeviceAddr>
 * standard requests instead of class and custom requests.
 */
static inline usbMsgLen_t usbDriverSetup(usbRequest_t *rq)
{
usbMsgLen_t len = 0;
uchar   *dataPtr = usbTxBuf + 9;    /* there are 2 bytes free space at the end of the buffer */
 474:	2e e7       	ldi	r18, 0x7E	; 126
 476:	30 e0       	ldi	r19, 0x00	; 0
/* usbDriverSetup() is similar to usbFunctionSetup(), but it's used for
 * standard requests instead of class and custom requests.
 */
static inline usbMsgLen_t usbDriverSetup(usbRequest_t *rq)
{
usbMsgLen_t len = 0;
 478:	80 e0       	ldi	r24, 0x00	; 0
 47a:	56 c0       	rjmp	.+172    	; 0x528 <usbPoll+0x120>
        }
#endif
    SWITCH_CASE(USBRQ_SET_ADDRESS)          /* 5 */
        usbNewDeviceAddr = value;
        USB_SET_ADDRESS_HOOK();
    SWITCH_CASE(USBRQ_GET_DESCRIPTOR)       /* 6 */
 47c:	86 30       	cpi	r24, 0x06	; 6
 47e:	e9 f5       	brne	.+122    	; 0x4fa <usbPoll+0xf2>
static inline usbMsgLen_t usbDriverDescriptor(usbRequest_t *rq)
{
usbMsgLen_t len = 0;
uchar       flags = USB_FLG_MSGPTR_IS_ROM;

    SWITCH_START(rq->wValue.bytes[1])
 480:	8b 81       	ldd	r24, Y+3	; 0x03
    SWITCH_CASE(USBDESCR_DEVICE)    /* 1 */
 482:	81 30       	cpi	r24, 0x01	; 1
 484:	41 f4       	brne	.+16     	; 0x496 <usbPoll+0x8e>
        GET_DESCRIPTOR(USB_CFG_DESCR_PROPS_DEVICE, usbDescriptorDevice)
 486:	80 e3       	ldi	r24, 0x30	; 48
 488:	90 e0       	ldi	r25, 0x00	; 0
 48a:	90 93 84 00 	sts	0x0084, r25	; 0x800084 <usbMsgPtr+0x1>
 48e:	80 93 83 00 	sts	0x0083, r24	; 0x800083 <usbMsgPtr>
 492:	82 e1       	ldi	r24, 0x12	; 18
 494:	2e c0       	rjmp	.+92     	; 0x4f2 <usbPoll+0xea>
    SWITCH_CASE(USBDESCR_CONFIG)    /* 2 */
 496:	82 30       	cpi	r24, 0x02	; 2
 498:	41 f4       	brne	.+16     	; 0x4aa <usbPoll+0xa2>
        GET_DESCRIPTOR(USB_CFG_DESCR_PROPS_CONFIGURATION, usbDescriptorConfiguration)
 49a:	8e e1       	ldi	r24, 0x1E	; 30
 49c:	90 e0       	ldi	r25, 0x00	; 0
 49e:	90 93 84 00 	sts	0x0084, r25	; 0x800084 <usbMsgPtr+0x1>
 4a2:	80 93 83 00 	sts	0x0083, r24	; 0x800083 <usbMsgPtr>
 4a6:	82 e1       	ldi	r24, 0x12	; 18
 4a8:	24 c0       	rjmp	.+72     	; 0x4f2 <usbPoll+0xea>
    SWITCH_CASE(USBDESCR_STRING)    /* 3 */
 4aa:	83 30       	cpi	r24, 0x03	; 3
 4ac:	f9 f4       	brne	.+62     	; 0x4ec <usbPoll+0xe4>
#if USB_CFG_DESCR_PROPS_STRINGS & USB_PROP_IS_DYNAMIC
        if(USB_CFG_DESCR_PROPS_STRINGS & USB_PROP_IS_RAM)
            flags = 0;
        len = usbFunctionDescriptor(rq);
#else   /* USB_CFG_DESCR_PROPS_STRINGS & USB_PROP_IS_DYNAMIC */
        SWITCH_START(rq->wValue.bytes[0])
 4ae:	8a 81       	ldd	r24, Y+2	; 0x02
        SWITCH_CASE(0)
 4b0:	81 11       	cpse	r24, r1
 4b2:	08 c0       	rjmp	.+16     	; 0x4c4 <usbPoll+0xbc>
            GET_DESCRIPTOR(USB_CFG_DESCR_PROPS_STRING_0, usbDescriptorString0)
 4b4:	86 e6       	ldi	r24, 0x66	; 102
 4b6:	90 e0       	ldi	r25, 0x00	; 0
 4b8:	90 93 84 00 	sts	0x0084, r25	; 0x800084 <usbMsgPtr+0x1>
 4bc:	80 93 83 00 	sts	0x0083, r24	; 0x800083 <usbMsgPtr>
 4c0:	84 e0       	ldi	r24, 0x04	; 4
 4c2:	17 c0       	rjmp	.+46     	; 0x4f2 <usbPoll+0xea>
        SWITCH_CASE(1)
 4c4:	81 30       	cpi	r24, 0x01	; 1
 4c6:	41 f4       	brne	.+16     	; 0x4d8 <usbPoll+0xd0>
            GET_DESCRIPTOR(USB_CFG_DESCR_PROPS_STRING_VENDOR, usbDescriptorStringVendor)
 4c8:	84 e5       	ldi	r24, 0x54	; 84
 4ca:	90 e0       	ldi	r25, 0x00	; 0
 4cc:	90 93 84 00 	sts	0x0084, r25	; 0x800084 <usbMsgPtr+0x1>
 4d0:	80 93 83 00 	sts	0x0083, r24	; 0x800083 <usbMsgPtr>
 4d4:	82 e1       	ldi	r24, 0x12	; 18
 4d6:	0d c0       	rjmp	.+26     	; 0x4f2 <usbPoll+0xea>
        SWITCH_CASE(2)
 4d8:	82 30       	cpi	r24, 0x02	; 2
 4da:	51 f4       	brne	.+20     	; 0x4f0 <usbPoll+0xe8>
            GET_DESCRIPTOR(USB_CFG_DESCR_PROPS_STRING_PRODUCT, usbDescriptorStringDevice)
 4dc:	82 e4       	ldi	r24, 0x42	; 66
 4de:	90 e0       	ldi	r25, 0x00	; 0
 4e0:	90 93 84 00 	sts	0x0084, r25	; 0x800084 <usbMsgPtr+0x1>
 4e4:	80 93 83 00 	sts	0x0083, r24	; 0x800083 <usbMsgPtr>
 4e8:	82 e1       	ldi	r24, 0x12	; 18
 4ea:	03 c0       	rjmp	.+6      	; 0x4f2 <usbPoll+0xea>
/* usbDriverDescriptor() is similar to usbFunctionDescriptor(), but used
 * internally for all types of descriptors.
 */
static inline usbMsgLen_t usbDriverDescriptor(usbRequest_t *rq)
{
usbMsgLen_t len = 0;
 4ec:	80 e0       	ldi	r24, 0x00	; 0
 4ee:	01 c0       	rjmp	.+2      	; 0x4f2 <usbPoll+0xea>
 4f0:	80 e0       	ldi	r24, 0x00	; 0
    SWITCH_DEFAULT
        if(USB_CFG_DESCR_PROPS_UNKNOWN & USB_PROP_IS_DYNAMIC){
            len = usbFunctionDescriptor(rq);
        }
    SWITCH_END
    usbMsgFlags = flags;
 4f2:	90 e4       	ldi	r25, 0x40	; 64
 4f4:	90 93 74 00 	sts	0x0074, r25	; 0x800074 <usbMsgFlags>
 4f8:	1b c0       	rjmp	.+54     	; 0x530 <usbPoll+0x128>
        usbNewDeviceAddr = value;
        USB_SET_ADDRESS_HOOK();
    SWITCH_CASE(USBRQ_GET_DESCRIPTOR)       /* 6 */
        len = usbDriverDescriptor(rq);
        goto skipMsgPtrAssignment;
    SWITCH_CASE(USBRQ_GET_CONFIGURATION)    /* 8 */
 4fa:	88 30       	cpi	r24, 0x08	; 8
 4fc:	71 f0       	breq	.+28     	; 0x51a <usbPoll+0x112>
        dataPtr = &usbConfiguration;  /* send current configuration value */
        len = 1;
    SWITCH_CASE(USBRQ_SET_CONFIGURATION)    /* 9 */
 4fe:	89 30       	cpi	r24, 0x09	; 9
 500:	31 f4       	brne	.+12     	; 0x50e <usbPoll+0x106>
        usbConfiguration = value;
 502:	90 93 88 00 	sts	0x0088, r25	; 0x800088 <usbConfiguration>
 * standard requests instead of class and custom requests.
 */
static inline usbMsgLen_t usbDriverSetup(usbRequest_t *rq)
{
usbMsgLen_t len = 0;
uchar   *dataPtr = usbTxBuf + 9;    /* there are 2 bytes free space at the end of the buffer */
 506:	2e e7       	ldi	r18, 0x7E	; 126
 508:	30 e0       	ldi	r19, 0x00	; 0
/* usbDriverSetup() is similar to usbFunctionSetup(), but it's used for
 * standard requests instead of class and custom requests.
 */
static inline usbMsgLen_t usbDriverSetup(usbRequest_t *rq)
{
usbMsgLen_t len = 0;
 50a:	80 e0       	ldi	r24, 0x00	; 0
 50c:	0d c0       	rjmp	.+26     	; 0x528 <usbPoll+0x120>
        dataPtr = &usbConfiguration;  /* send current configuration value */
        len = 1;
    SWITCH_CASE(USBRQ_SET_CONFIGURATION)    /* 9 */
        usbConfiguration = value;
        usbResetStall();
    SWITCH_CASE(USBRQ_GET_INTERFACE)        /* 10 */
 50e:	8a 30       	cpi	r24, 0x0A	; 10
 510:	41 f0       	breq	.+16     	; 0x522 <usbPoll+0x11a>
 * standard requests instead of class and custom requests.
 */
static inline usbMsgLen_t usbDriverSetup(usbRequest_t *rq)
{
usbMsgLen_t len = 0;
uchar   *dataPtr = usbTxBuf + 9;    /* there are 2 bytes free space at the end of the buffer */
 512:	2e e7       	ldi	r18, 0x7E	; 126
 514:	30 e0       	ldi	r19, 0x00	; 0
/* usbDriverSetup() is similar to usbFunctionSetup(), but it's used for
 * standard requests instead of class and custom requests.
 */
static inline usbMsgLen_t usbDriverSetup(usbRequest_t *rq)
{
usbMsgLen_t len = 0;
 516:	80 e0       	ldi	r24, 0x00	; 0
 518:	07 c0       	rjmp	.+14     	; 0x528 <usbPoll+0x120>
        USB_SET_ADDRESS_HOOK();
    SWITCH_CASE(USBRQ_GET_DESCRIPTOR)       /* 6 */
        len = usbDriverDescriptor(rq);
        goto skipMsgPtrAssignment;
    SWITCH_CASE(USBRQ_GET_CONFIGURATION)    /* 8 */
        dataPtr = &usbConfiguration;  /* send current configuration value */
 51a:	28 e8       	ldi	r18, 0x88	; 136
 51c:	30 e0       	ldi	r19, 0x00	; 0
        len = 1;
 51e:	81 e0       	ldi	r24, 0x01	; 1
 520:	03 c0       	rjmp	.+6      	; 0x528 <usbPoll+0x120>
 * standard requests instead of class and custom requests.
 */
static inline usbMsgLen_t usbDriverSetup(usbRequest_t *rq)
{
usbMsgLen_t len = 0;
uchar   *dataPtr = usbTxBuf + 9;    /* there are 2 bytes free space at the end of the buffer */
 522:	2e e7       	ldi	r18, 0x7E	; 126
 524:	30 e0       	ldi	r19, 0x00	; 0
        len = 1;
    SWITCH_CASE(USBRQ_SET_CONFIGURATION)    /* 9 */
        usbConfiguration = value;
        usbResetStall();
    SWITCH_CASE(USBRQ_GET_INTERFACE)        /* 10 */
        len = 1;
 526:	81 e0       	ldi	r24, 0x01	; 1
        usbResetStall();
#endif
    SWITCH_DEFAULT                          /* 7=SET_DESCRIPTOR, 12=SYNC_FRAME */
        /* Should we add an optional hook here? */
    SWITCH_END
    usbMsgPtr = (usbMsgPtr_t)dataPtr;
 528:	30 93 84 00 	sts	0x0084, r19	; 0x800084 <usbMsgPtr+0x1>
 52c:	20 93 83 00 	sts	0x0083, r18	; 0x800083 <usbMsgPtr>
            }
            usbMsgFlags = USB_FLG_USE_USER_RW;
        }else   /* The 'else' prevents that we limit a replyLen of USB_NO_MSG to the maximum transfer len. */
#endif
        if(sizeof(replyLen) < sizeof(rq->wLength.word)){ /* help compiler with optimizing */
            if(!rq->wLength.bytes[1] && replyLen > rq->wLength.bytes[0])    /* limit length to max */
 530:	9f 81       	ldd	r25, Y+7	; 0x07
 532:	91 11       	cpse	r25, r1
 534:	04 c0       	rjmp	.+8      	; 0x53e <usbPoll+0x136>
 536:	9e 81       	ldd	r25, Y+6	; 0x06
 538:	98 17       	cp	r25, r24
 53a:	08 f4       	brcc	.+2      	; 0x53e <usbPoll+0x136>
                replyLen = rq->wLength.bytes[0];
 53c:	89 2f       	mov	r24, r25
        }else{
            if(replyLen > rq->wLength.word)     /* limit length to max */
                replyLen = rq->wLength.word;
        }
        usbMsgLen = replyLen;
 53e:	80 93 70 00 	sts	0x0070, r24	; 0x800070 <usbMsgLen>
        usbProcessRx(usbRxBuf + USB_BUFSIZE + 1 - usbInputBufOffset, len);
#if USB_CFG_HAVE_FLOWCONTROL
        if(usbRxLen > 0)    /* only mark as available if not inactivated */
            usbRxLen = 0;
#else
        usbRxLen = 0;       /* mark rx buffer as available */
 542:	10 92 85 00 	sts	0x0085, r1	; 0x800085 <usbRxLen>
#endif
    }
    if(usbTxLen & 0x10){    /* transmit system idle */
 546:	80 91 71 00 	lds	r24, 0x0071	; 0x800071 <usbTxLen>
 54a:	84 ff       	sbrs	r24, 4
 54c:	29 c0       	rjmp	.+82     	; 0x5a0 <usbPoll+0x198>
        if(usbMsgLen != USB_NO_MSG){    /* transmit data pending? */
 54e:	80 91 70 00 	lds	r24, 0x0070	; 0x800070 <usbMsgLen>
 552:	8f 3f       	cpi	r24, 0xFF	; 255
 554:	29 f1       	breq	.+74     	; 0x5a0 <usbPoll+0x198>
{
usbMsgLen_t wantLen;
uchar       len;

    wantLen = usbMsgLen;
    if(wantLen > 8)
 556:	89 30       	cpi	r24, 0x09	; 9
 558:	10 f4       	brcc	.+4      	; 0x55e <usbPoll+0x156>
static inline void usbBuildTxBlock(void)
{
usbMsgLen_t wantLen;
uchar       len;

    wantLen = usbMsgLen;
 55a:	68 2f       	mov	r22, r24
 55c:	01 c0       	rjmp	.+2      	; 0x560 <usbPoll+0x158>
    if(wantLen > 8)
        wantLen = 8;
 55e:	68 e0       	ldi	r22, 0x08	; 8
    usbMsgLen -= wantLen;
 560:	86 1b       	sub	r24, r22
 562:	80 93 70 00 	sts	0x0070, r24	; 0x800070 <usbMsgLen>
    usbTxBuf[0] ^= USBPID_DATA0 ^ USBPID_DATA1; /* DATA toggling */
 566:	e5 e7       	ldi	r30, 0x75	; 117
 568:	f0 e0       	ldi	r31, 0x00	; 0
 56a:	90 81       	ld	r25, Z
 56c:	88 e8       	ldi	r24, 0x88	; 136
 56e:	89 27       	eor	r24, r25
 570:	80 83       	st	Z, r24
    len = usbDeviceRead(usbTxBuf + 1, wantLen);
 572:	86 e7       	ldi	r24, 0x76	; 118
 574:	90 e0       	ldi	r25, 0x00	; 0
 576:	27 df       	rcall	.-434    	; 0x3c6 <usbDeviceRead>
 578:	c8 2f       	mov	r28, r24
    if(len <= 8){           /* valid data packet */
 57a:	89 30       	cpi	r24, 0x09	; 9
 57c:	58 f4       	brcc	.+22     	; 0x594 <usbPoll+0x18c>
        usbCrc16Append(&usbTxBuf[1], len);
 57e:	68 2f       	mov	r22, r24
 580:	86 e7       	ldi	r24, 0x76	; 118
 582:	90 e0       	ldi	r25, 0x00	; 0
 584:	a3 dd       	rcall	.-1210   	; 0xcc <usbCrc16Append>
        len += 4;           /* length including sync byte */
 586:	cc 5f       	subi	r28, 0xFC	; 252
        if(len < 12)        /* a partial package identifies end of message */
 588:	cc 30       	cpi	r28, 0x0C	; 12
 58a:	40 f4       	brcc	.+16     	; 0x59c <usbPoll+0x194>
            usbMsgLen = USB_NO_MSG;
 58c:	8f ef       	ldi	r24, 0xFF	; 255
 58e:	80 93 70 00 	sts	0x0070, r24	; 0x800070 <usbMsgLen>
 592:	04 c0       	rjmp	.+8      	; 0x59c <usbPoll+0x194>
    }else{
        len = USBPID_STALL;   /* stall the endpoint */
        usbMsgLen = USB_NO_MSG;
 594:	8f ef       	ldi	r24, 0xFF	; 255
 596:	80 93 70 00 	sts	0x0070, r24	; 0x800070 <usbMsgLen>
        usbCrc16Append(&usbTxBuf[1], len);
        len += 4;           /* length including sync byte */
        if(len < 12)        /* a partial package identifies end of message */
            usbMsgLen = USB_NO_MSG;
    }else{
        len = USBPID_STALL;   /* stall the endpoint */
 59a:	ce e1       	ldi	r28, 0x1E	; 30
        usbMsgLen = USB_NO_MSG;
    }
    usbTxLen = len;
 59c:	c0 93 71 00 	sts	0x0071, r28	; 0x800071 <usbTxLen>
    if(usbTxLen & 0x10){    /* transmit system idle */
        if(usbMsgLen != USB_NO_MSG){    /* transmit data pending? */
            usbBuildTxBlock();
        }
    }
    for(i = 20; i > 0; i--){
 5a0:	94 e1       	ldi	r25, 0x14	; 20
 5a2:	04 c0       	rjmp	.+8      	; 0x5ac <usbPoll+0x1a4>
        uchar usbLineStatus = USBIN & USBMASK;
 5a4:	86 b3       	in	r24, 0x16	; 22
 5a6:	86 70       	andi	r24, 0x06	; 6
        if(usbLineStatus != 0)  /* SE0 has ended */
 5a8:	39 f4       	brne	.+14     	; 0x5b8 <usbPoll+0x1b0>
    if(usbTxLen & 0x10){    /* transmit system idle */
        if(usbMsgLen != USB_NO_MSG){    /* transmit data pending? */
            usbBuildTxBlock();
        }
    }
    for(i = 20; i > 0; i--){
 5aa:	91 50       	subi	r25, 0x01	; 1
 5ac:	91 11       	cpse	r25, r1
 5ae:	fa cf       	rjmp	.-12     	; 0x5a4 <usbPoll+0x19c>
        uchar usbLineStatus = USBIN & USBMASK;
        if(usbLineStatus != 0)  /* SE0 has ended */
            goto isNotReset;
    }
    /* RESET condition, called multiple times during reset */
    usbNewDeviceAddr = 0;
 5b0:	10 92 86 00 	sts	0x0086, r1	; 0x800086 <usbNewDeviceAddr>
    usbDeviceAddr = 0;
 5b4:	10 92 80 00 	sts	0x0080, r1	; 0x800080 <usbDeviceAddr>
    usbResetStall();
    DBG1(0xff, 0, 0);
isNotReset:
    usbHandleResetHook(i);
}
 5b8:	df 91       	pop	r29
 5ba:	cf 91       	pop	r28
 5bc:	08 95       	ret

000005be <usbInit>:
/* ------------------------------------------------------------------------- */

USB_PUBLIC void usbInit(void)
{
#if USB_INTR_CFG_SET != 0
    USB_INTR_CFG |= USB_INTR_CFG_SET;
 5be:	85 b7       	in	r24, 0x35	; 53
 5c0:	82 60       	ori	r24, 0x02	; 2
 5c2:	85 bf       	out	0x35, r24	; 53
#endif
#if USB_INTR_CFG_CLR != 0
    USB_INTR_CFG &= ~(USB_INTR_CFG_CLR);
#endif
    USB_INTR_ENABLE |= (1 << USB_INTR_ENABLE_BIT);
 5c4:	8b b7       	in	r24, 0x3b	; 59
 5c6:	80 64       	ori	r24, 0x40	; 64
 5c8:	8b bf       	out	0x3b, r24	; 59
 5ca:	08 95       	ret

000005cc <_exit>:
 5cc:	f8 94       	cli

000005ce <__stop_program>:
 5ce:	ff cf       	rjmp	.-2      	; 0x5ce <__stop_program>
